:104000001E83FE233041B240C0903001B24093E0A5
:1040100038011A423A011B423C011C423E01034353
:10402000034303430343B240BE103A01F240B900D8
:104030003C01B240FF573201F2403C0038011A42C5
:104040003A011B423C011C423E010343034303432C
:104050000343F240E3003C0159423C010343B240B8
:104060007F403601B24040C03C01B240FE81380181
:104070001A423A011B423C011C423E0103430343E6
:1040800003430343F240240038011A423A011B4221
:104090003C011C423E010343034303430343B2403C
:1040A000F68138011A423A011B423C011C423E0192
:1040B0000343034303430343B24095CA3001B24074
:1040C000D1993C01F240C2003C01B2400B3E3201AA
:1040D000B24041EF3A0192433401B24030553C01C5
:1040E000B240FF0038011A423A011B423C011C4217
:1040F0003E01034303430343034359423001034357
:10410000B240605C3001B24000D238011A423A013C
:104110001B423C011C423E01034303430343034350
:10412000B240E7ED3A01B24082023401B240FF4FA3
:104130003A01B2404FC438011A423A011B423C01D5
:104140001C423E010343034303430343B24029603F
:1041500038011A423A011B423C011C423E01034312
:10416000034303430343B24001023201B240C8A8F3
:1041700038011A423A011B423C011C423E010343F2
:10418000034303430343B2401E983C01B240018005
:104190003601B240D17D38011A423A011B423C013E
:1041A0001C423E010343034303430343B24088B42C
:1041B00038011A423A011B423C011C423E010343B2
:1041C00003430343034359423C010343B240FF5FAF
:1041D0003001B240030038011A423A011B423C014F
:1041E0001C423E010343034303430343B2433C01E8
:1041F00059423C01034359423C01034359423E01A9
:104200000343B24001803201F2404F0038011A42AC
:104210003A011B423C011C423E010343034303435A
:104220000343B240805B38011A423A011B423C0111
:104230001C423E010343034303430343B240805FF8
:104240003401B24002343601B2406E3F3A01B2400E
:10425000320F38011A423A011B423C011C423E0116
:104260000343034303430343B240F99838011A421E
:104270003A011B423C011C423E01034303430343FA
:104280000343B24002343201B240FFAB3001B240CE
:10429000060038011A423A011B423C011C423E0111
:1042A0000343034303430343F2409A003C01594252
:1042B0003C010343594238010343B2405855300191
:1042C000B240E8D838011A423A011B423C011C4274
:1042D0003E010343034303430343B24081FF3C01D8
:1042E00059423C01034359423A010343F2408400DE
:1042F0003001B240070838011A423A011B423C0122
:104300001C423E010343034303430343B240008086
:104310003601B24001523201B240CFAF38011A42E9
:104320003A011B423C011C423E0103430343034349
:104330000343F240D4003C0159423A01034359423D
:104340003C010343B240083B38011A423A011B4288
:104350003C011C423E010343034303430343B24079
:1043600069DA3401B240DBA03C01B2400080360182
:10437000B240D76738011A423A011B423C011C4245
:104380003E010343034303430343B2401BA63801EA
:104390001A423A011B423C011C423E0103430343C3
:1043A0000343034359423C010343B240FFCC38016D
:1043B0001A423A011B423C011C423E0103430343A3
:1043C00003430343B24061E43001B24021053801A8
:1043D0001A423A011B423C011C423E010343034383
:1043E00003430343B240D1C93C01F2403B003801D2
:1043F0001A423A011B423C011C423E010343034363
:1044000003430343B24001403201B240DD80380132
:104410001A423A011B423C011C423E010343034342
:1044200003430343B240FB5B3A0159423201034369
:10443000B2401AD73401B240395B38011A423A010E
:104440001B423C011C423E0103430343034303431D
:10445000B2404DC038011A423A011B423C011C4295
:104460003E010343034303430343B240026132016D
:10447000B240C0C038011A423A011B423C011C4202
:104480003E010343034303430343F240C3003C01A3
:1044900059423C010343F2407E003601B240FFAA7C
:1044A0003001B240600038011A423A011B423C011F
:1044B0001C423E010343034303430343B240207FB6
:1044C0003C0159423C010343F240F0003E01B2403E
:1044D000BFAA3001B240600038011A423A011B42C3
:1044E0003C011C423E010343034303430343F240A8
:1044F00020003C0159423C010343F2402A003A01AA
:10450000B240AFAA3001B240600038011A423A010D
:104510001B423C011C423E0103430343034303434C
:10452000B240E0FF3C0159423C010343F240DA0053
:1045300038011A423A011B423C011C423E0103432E
:10454000034303430343B2407F1F340159423A01FE
:104550000343F24041003401B24010FF3A01B2433C
:104560003C01B240B67138011A423A011B423C018B
:104570001C423E010343034303430343F2402C0028
:104580003C01B2407F803601F24089003C01F2409C
:10459000F10038011A423A011B423C011C423E0123
:1045A0000343034303430343B2407F8138011A426C
:1045B0003A011B423C011C423E01034303430343B7
:1045C0000343B24087A43201F2407E0038011A4210
:1045D0003A011B423C011C423E0103430343034397
:1045E0000343B2403A9038011A423A011B423C015F
:1045F0001C423E010343034303430343B240575568
:104600003601F2407C0038011A423A011B423C015B
:104610001C423E010343034303430343B240C4A58A
:104620003C0159423C010343B2407A6138011A42CD
:104630003A011B423C011C423E0103430343034336
:104640000343B240ABAA3001F240600038011A4285
:104650003A011B423C011C423E0103430343034316
:104660000343F24060003C0159423C010343F240E5
:1046700003003601F2407B0038011A423A011B4226
:104680003C011C423E010343034303430343B24046
:10469000B78038011A423A011B423C011C423E01DC
:1046A0000343034303430343B24030D63C01B240CB
:1046B000CD263601F2408F0038011A423A011B42E2
:1046C0003C011C423E010343034303430343B24006
:1046D000C18038011A423A011B423C011C423E0192
:1046E000034303430343034359423C010343F24062
:1046F00003003A01F240EA003C01B24002DC36011C
:10470000F240C00038011A423A011B423C011C42EF
:104710003E010343034303430343B240F1B2380174
:104720001A423A011B423C011C423E01034303432F
:104730000343034359423C010343B2407F0032012B
:10474000B2400DB638011A423A011B423C011C42EC
:104750003E010343034303430343B24095813801C1
:104760001A423A011B423C011C423E0103430343EF
:1047700003430343B240FF423601B24009873C0184
:10478000F2407C0038011A423A011B423C011C42B3
:104790003E010343034303430343B24069803801AE
:1047A0001A423A011B423C011C423E0103430343AF
:1047B00003430343B2403F203601F24046003C0130
:1047C000F240A40038011A423A011B423C011C424B
:1047D0003E010343034303430343B240E9823801EC
:1047E0001A423A011B423C011C423E01034303436F
:1047F00003430343B2401F303601B24040783C01CE
:10480000F240B10038011A423A011B423C011C42FD
:104810003E010343034303430343B240538438013F
:104820001A423A011B423C011C423E01034303432E
:1048300003430343B24007AF3601F240B0003C01EE
:10484000B2406A0038011A423A011B423C011C4244
:104850003E010343034303430343B240C690380180
:104860001A423A011B423C011C423E0103430343EE
:1048700003430343B2400F423601B240718C3C0106
:10488000F240D10038011A423A011B423C011C425D
:104890003E010343034303430343B2409988380175
:1048A0001A423A011B423C011C423E0103430343AE
:1048B00003430343B24002803C01B240F5FF36019E
:1048C000F240B20038011A423A011B423C011C423C
:1048D0003E010343034303430343B240798038015D
:1048E0001A423A011B423C011C423E01034303436E
:1048F0000343034359423E010343B240C9803A0196
:10490000F24091003001B2408BE33601B2409C404E
:10491000340192433201B2404F6138011A423A01E8
:104920001B423C011C423E01034303430343034338
:10493000F240AB003C01B240DDBE3C01D24332014B
:10494000F240A40038011A423A011B423C011C42C9
:104950003E010343034303430343B240FB983C013E
:10496000F240CD00340159423E0103430343B240BB
:10497000341230011A423001F240AB0030011B42C8
:10498000300103431F430343B240785632011A42B9
:104990003201F240BC0032011B42320103432F437B
:1049A0000343B240BC9A34011A423401F240DE00A3
:1049B00034011B42340103433F4003000343B24030
:1049C000F0DE36011A423601F240ED0036011B429C
:1049D000360103432F420343B240214338011A42B8
:1049E0003801F240DC0038011B42380103433F40EC
:1049F00005000343B24065873A011A423A01F2408A
:104A0000CB003A011B423A0103433F4006000343F7
:104A1000B240A9CB3C011A423C01F240BA003C0131
:104A20001B423C0103433F4000103F4001103F4008
:104A30000020B240905A20013F4001203F4000300A
:104A40001A4202003F400130B240555502001A425E
:104A500002003F400230B240AAAA02001A420200FD
:104A60003F400330F240550002005A4202003F40EE
:104A70000430F240AA0003005A4203003F400530D0
:104A8000824302001A4202003F4006303F4000408D
:104A90001A4200003F400140B240555500001A4202
:104AA00000003F400240B240AAAA00001A420000A3
:104AB0003F400340F240550000005A4200003F4092
:104AC0000440F240AA0001005A4201003F40054064
:104AD000824300001A4200003F4006403F40005021
:104AE0001A4204001B4206003F400150824004006D
:104AF000824006001A4204001B4206003F4002505A
:104B000082400400824006001A4204001B42060054
:104B10003F4003503F4000601A4208003F400160A0
:104B2000824008001A4208003F40026082400800AC
:104B30001A4208003F4003601243344032730411AC
:104B40000542124336403373061107420243384090
:104B500032830811094202433A4033830A110B425F
:104B60003F4000101243B240327300023440000252
:104B7000B240AAAA0202241105421243B240337382
:104B8000020236400202B240AAAA040226110742DB
:104B90000243B2403283040238400402B240AAAA5F
:104BA0000602281109420243B240338306023A400A
:104BB0000602B240AAAA08022A110B423F40002076
:104BC0001243B2403273080234400802B240AAAA2B
:104BD0000A02341105421243B24033730A023640CE
:104BE0000A02B240AAAA0C02361107420243B2409E
:104BF00032830C0238400C02B240AAAA0E023811CD
:104C000009420243B24033830E023A400E02B240E0
:104C1000AAAA10023A110B423F4000301243B240A0
:104C20003273100234400002B240AAAA12021411D8
:104C3000100005421243B2403373120236400002A4
:104C4000B240AAAA14021611120007420243B2404F
:104C50003283140238400002B240AAAA1602181188
:104C6000140009420243B240338316023A40000264
:104C7000B240AAAA18021A1116000B423F40004087
:104C80001243B24032731802B240AAAA1A0210119B
:104C900088B505421243B24033731A02B240AAAA41
:104CA0001C02101176B507420243B24032831C0247
:104CB000B240AAAA1E02101164B509420243B240D2
:104CC00033831E02B240AAAA2002101152B50B4231
:104CD0003F4000501243B24032732002B240AAAAB1
:104CE00022021211200205421243B2403373220203
:104CF000B240AAAA24021211220207420243B24081
:104D000032832402B240AAAA2602121124020942C6
:104D10000243B24033832602B240AAAA28021211EB
:104D200026020B423F40006034401500354000022F
:104D30008543000025531483FB233F40007012433A
:104D4000344072FF441105421243364073FF46114E
:104D500007420243384082F04811094202433A4078
:104D600083F04A110B423F4000801243B24072254B
:104D7000000234400002B240AAAA020264110542B5
:104D80001243B2407325020236400202B240AAAA80
:104D90000402661107420243B240822504023840F1
:104DA0000402B240AAAA0602681109420243B240B4
:104DB000832506023A400602B240AAAA08026A11F6
:104DC0000B423F4000901243B2402572080234402B
:104DD0000902B240AAAA0A02641106421243B24072
:104DE00025730A0236400B02B240AAAA0C026611D1
:104DF00008420243B24025820C0238400D02B24004
:104E0000AAAA0E0268110A420243B24025830E028A
:104E10003A400F02B240AAAA10026A110B423F4068
:104E200001901243B2407225100234401002B24089
:104E3000AAAA1202741105421243B240732512024B
:104E400036401202B240AAAA140276110742024367
:104E5000B2408225140238401402B240AAAA1602B7
:104E6000781109420243B240832516023A401602E5
:104E7000B240AAAA18027A110B423F4000A0124386
:104E8000B2402572180234401902B240AAAA1A028E
:104E9000741106421243B24025731A0236401B02B7
:104EA000B240AAAA1C02761108420243B2402582EF
:104EB0001C0238401D02B240AAAA1E0278110A4202
:104EC0000243B24025831E023A401F02B240AAAA02
:104ED00020027A110B423F4001A01243B2407225DA
:104EE000200234400002B240AAAA2202541120003B
:104EF00005421243B2407325220236400002B240FE
:104F0000AAAA24025611220007420243B240822577
:104F1000240238400002B240AAAA260258112400F6
:104F200009420243B240832526023A400002B240C1
:104F3000AAAA28025A1126000B423F4000B0124391
:104F4000B2402572280234400002B240AAAA2A02C6
:104F50005411290005421243B24025732A023640FB
:104F60000002B240AAAA2C0256112B0007420243AB
:104F7000B24025822C0238400002B240AAAA2E027A
:104F800058112D0009420243B24025832E023A40B7
:104F90000002B240AAAA30025A112F000B423F4031
:104FA00001B01243B24072253002B240AAAA3202C6
:104FB00050117EB205421243B24073253202B24014
:104FC000AAAA340250116CB207420243B2408225B1
:104FD0003402B240AAAA360250115AB20942024320
:104FE000B24083253602B240AAAA3802501148B214
:104FF0000B423F4000C01243B24025723802B2401B
:10500000AAAA3A02501133B205421243B2402573A4
:105010003A02B240AAAA3C02501121B2074202430E
:10502000B24025823C02B240AAAA3E0250110FB201
:1050300009420243B24025833E02B240AAAA40027E
:105040005011FDB10B423F4001C01243B2407225E6
:105050004002B240AAAA4202521140020542124343
:10506000B24073254202B240AAAA4402521142023F
:1050700007420243B24082254402B240AAAA460235
:105080005211440209420243B24083254602B24013
:10509000AAAA4802521146020B423F4000D01243D6
:1050A000B24025724802B240AAAA4A0252114902ED
:1050B00005421243B24025734A02B240AAAA4C02EA
:1050C00052114B0207420243B24025824C02B240C9
:1050D000AAAA4E0252114D0209420243B240258350
:1050E0004E02B240AAAA500252114F020B423F4058
:1050F00001D00243344032330410054202433640AB
:105100003333061007421243384032330810094245
:1051100012433A4033330A100B423F40001002431F
:10512000B2403233000234400002B240AAAA020266
:10513000241005420243B2403333020236400202D9
:10514000B240AAAA0402261007421243B2403233E8
:10515000040238400402B240AAAA060228100942FA
:105160001243B240333306023A400602B240AAAAC2
:1051700008022A100B423F4000200243B240323363
:10518000080234400802B240AAAA0A0234100542BA
:105190000243B24033330A0236400A02B240AAAA9E
:1051A0000C02361007421243B24032330C02384030
:1051B0000C02B240AAAA0E02381009421243B240B1
:1051C00033330E023A400E02B240AAAA10023A103D
:1051D0000B423F4000300243B240323310023440B1
:1051E0000002B240AAAA12021410100005420243A3
:1051F000B2403333120236400002B240AAAA14026F
:105200001610120007421243B240323314023840E3
:105210000002B240AAAA1602181014000942124352
:10522000B240333316023A400002B240AAAA180232
:105230001A1016000B423F4000400243B240323386
:105240001802B240AAAA1A021010CEAF05420243B9
:10525000B24033331A02B240AAAA1C021010BCAFEB
:1052600007421243B24032331C02B240AAAA1E02C5
:105270001010AAAF09421243B24033331E02B240AB
:10528000AAAA2002101098AF0B423F4000500243E0
:10529000B24032332002B240AAAA220212102002E7
:1052A00005420243B24033332202B240AAAA24028A
:1052B0001210220207421243B24032332402B2409B
:1052C000AAAA26021210240209421243B240333322
:1052D0002602B240AAAA2802121026020B423F4020
:1052E000006034401500354000028543000025531E
:1052F0001483FB233F4000700243344032FF4410CC
:1053000005420243364033FF4610074212433840FD
:1053100032F04810094212433A4033F04A100B422F
:105320003F4000800243B240322500023440000278
:10533000B240AAAA0202641005420243B2403325D9
:10534000020236400202B240AAAA040266100742D4
:105350001243B2403225040238400402B240AAAAE5
:105360000602681009421243B240332506023A4051
:105370000602B240AAAA08026A100B423F400090FF
:105380000243B2402532080234400902B240AAAAC0
:105390000A02641006420243B24025330A02364034
:1053A0000B02B240AAAA0C02661008421243B24095
:1053B00025320C0238400D02B240AAAA0E02681033
:1053C0000A421243B24025330E023A400F02B24065
:1053D000AAAA10026A100B423F4001900243B24059
:1053E0003225100234401002B240AAAA12027410F0
:1053F00005420243B2403325120236401202B24047
:10540000AAAA1402761007421243B24032251402AF
:1054100038401402B240AAAA160278100942124378
:10542000B240332516023A401602B240AAAA180228
:105430007A100B423F4000A00243B24025321802CE
:1054400034401902B240AAAA1A027410064202435A
:10545000B24025331A0236401B02B240AAAA1C02EF
:10546000761008421243B24025321C0238401D0219
:10547000B240AAAA1E0278100A421243B240253353
:105480001E023A401F02B240AAAA20027A100B4222
:105490003F4001A00243B24032253002B240AAAAE6
:1054A000320250108CAD05420243B2403325320225
:1054B000B240AAAA340250107AAD07421243B24059
:1054C00032253402B240AAAA3602501068AD094211
:1054D0001243B24033253602B240AAAA3802501015
:1054E00056AD0B423F4000C00243B2402532380265
:1054F000B240AAAA3A02501041AD05420243B2405E
:1055000025333A02B240AAAA3C0250102FAD0742FE
:105510001243B24025323C02B240AAAA3E025010C9
:105520001DAD09421243B24025333E02B240AAAA41
:10553000400250100BAD0B423F4001C00243B2404D
:1055400032254002B240AAAA42025210400205424D
:105550000243B24033254202B240AAAA440252108A
:10556000420207421243B24032254402B240AAAA84
:1055700046025210440209421243B2403325460209
:10558000B240AAAA4802521046020B423F4000D045
:105590000243B24025324802B240AAAA4A0252103F
:1055A000490205420243B24025334A02B240AAAA48
:1055B0004C0252104B0207421243B24025324C02B9
:1055C000B240AAAA4E0252104D0209421243B24002
:1055D00025334E02B240AAAA500252104F020B428B
:1055E0003F4001D03240000134402475841105420F
:1055F000324000013640B61C861107423F40001081
:1056000032400001B2402475000234400002B24032
:10561000AAAA0202A411054232400001B240B61CFF
:10562000020236400202B240AAAA0402A6110742B0
:105630003F40002032400001B2402475080234404F
:105640000802B240AAAA0A02B4110542324000017F
:10565000B240B61C0A0236400A02B240AAAA0C02A4
:10566000B61107423F40003032400001B24024757D
:10567000100234400002B240AAAA12029411100093
:10568000054232400001B240B61C12023640000210
:10569000B240AAAA14029611120007423F400040ED
:1056A00032400001B24024751802B240AAAA1A0280
:1056B000901166AB054232400001B240B61C1A029E
:1056C000B240AAAA1C02901152AB07423F400050C0
:1056D00032400001B24024752002B240AAAA220240
:1056E00092112002054232400001B240B61C220253
:1056F000B240AAAA24029211220207423F4000604F
:1057000032400201344024758410054232400500C5
:105710003640B61C861007423F400010324002015E
:10572000B2402475000234400002B240AAAA02022C
:10573000A410054232400500B240B61C02023640B9
:105740000202B240AAAA0402A61007423F4000206B
:1057500032400201B2402475080234400802B240CF
:10576000AAAA0A02B410054232400500B240B61C93
:105770000A0236400A02B240AAAA0C02B610074238
:105780003F40003032400201B240247510023440E4
:105790000002B240AAAA1202941010000542324040
:1057A0000500B240B61C120236400002B240AAAA5E
:1057B00014029610120007423F400040324002019E
:1057C000B24024751802B240AAAA1A0290104AAA3E
:1057D000054232400500B240B61C1A02B240AAAAE5
:1057E0001C02901036AA07423F400050324002018E
:1057F000B24024752002B240AAAA220292102002CE
:10580000054232400500B240B61C2202B240AAAAAC
:1058100024029210220207423F400060314332438B
:1058200033433443354336433743084309430A433C
:105830000B430C430D430E430F4301430243034309
:105840000443054306430743384339433A433B4344
:105850003C433D433E433F4301F102FE08F30EFE4D
:1058600003D30DD407D90CDC04E409E90BE606EAFE
:10587000354305C10ACA1F43344020003540300279
:105880008543000025531483FB23314052023F40DF
:10589000001034401C7B241236401E7B26123F40F1
:1058A00000203440207B341234123F40003034401A
:1058B000247B14121A0014121C003F4000401012E6
:1058C0008222101280223F4000501212467B121298
:1058D000487B3F400060F240AA002000D2422000F6
:1058E0000002F24055002000D24220000102F240A6
:1058F000AA002100D24221000202F24055002100FC
:10590000D24221000302F2405A002200D242220079
:105910000402F240A5002200D24222000502F24019
:1059200055002300D24223000602F240AA002300C1
:10593000D24223000702F240A5002400D2422400F4
:105940000802F2405A002400D24224000902F24028
:10595000AA002500D24225000A02F2405500250087
:10596000D24225000B02F240CD002600D242260092
:105970000C02F24032002600D24226000D02C24341
:105980002000C2432100C2432200C2432300C2437D
:105990002400C2432500C24326001F43F240AA0050
:1059A0002800D24228001002F24055002800D242BE
:1059B00028001102F240AA002900D2422900120256
:1059C000F24055002900D24229001302F2405A0049
:1059D0002A00D2422A001402F240A5002A00D24234
:1059E0002A001502F24055002B00D2422B0016026D
:1059F000F240AA002B00D2422B001702F240A50071
:105A00002C00D2422C001802F2405A002C00D24244
:105A10002C001902F240AA002D00D2422D001A02D9
:105A2000F24055002D00D2422D001B02F240CD0065
:105A30002E00D2422E001C02F24032002E00D24232
:105A40002E001D02C2432800C2432900C2432A007F
:105A5000C2432B00C2432C00C2432D00C2432E0080
:105A60002F43F240AA001800D24218002002F24050
:105A700055001800D24218002102F240AA00190075
:105A8000D24219002202F24055001900D2421900F8
:105A90002302F2405A001A00D2421A002402F240B5
:105AA000A5001A00D2421A002502F240CD001B00C8
:105AB000D2421B002602F24032001B00D2421B00E1
:105AC0002702C2431800C2431900C2431A00C2434E
:105AD0001B003F400300F240AA001C00D2421C0001
:105AE0003002F24055001C00D2421C003102F2404C
:105AF000AA001D00D2421D003202F24055001D00D6
:105B0000D2421D003302F2405A001E00D2421E0053
:105B10003402F240A5001E00D2421E003502F240BF
:105B2000CD001F00D2421F003602F24032001F009B
:105B3000D2421F003702C2431C00C2431D00C243B1
:105B40001E00C2431F002F42F240AA003000D24282
:105B500030004002F24055003000D2423000410295
:105B6000F240AA003100D24231004202F240550018
:105B70003100D24231004302F2405A003200D24298
:105B800032004402F240A5003200D2423200450207
:105B9000F240CD003300D24233004602F2403200E0
:105BA0003300D24233004702C2433000C2433100C7
:105BB000C2433200C24333003F400500F240AA0016
:105BC0003400D24234005002F24055003400D24238
:105BD00034005102F240AA003500D2423500520290
:105BE000F24055003500D24235005302F2405A00CF
:105BF0003600D24236005402F240A5003600D242AE
:105C000036005502F240CD003700D242370056022E
:105C1000F24032003700D24237005702C24334000C
:105C2000C2433500C2433600C24337003F4006003E
:105C30003F4000020343DF42200000001F533F901B
:105C40000802F923D24321003F400011D252210023
:105C500021001F533F900711F923D24322003F40F8
:105C60000012D252220022001F533F900712F92344
:105C7000D24326003F400013D252260026001F5375
:105C80003F900713F923C2432100C2432200C243BD
:105C900026003F4010020343DF42280000001F534C
:105CA0003F901802F923D24329003F400021D252ED
:105CB000290029001F533F900721F923D2432A00CE
:105CC0003F400022D2522A002A001F533F90072251
:105CD000F923D2432E003F400023D2522E002E0043
:105CE0001F533F900723F923C2432900C2432A00D0
:105CF000C2432E003F4020020343DF421800000051
:105D00001F533F902802F923D24319003F4000312E
:105D1000D252190019001F533F900731F923D24383
:105D20001A003F400032D2521A001A001F533F900F
:105D30000732F923D2431B003F400033D2521B00ED
:105D40001B001F533F900733F923C2431900C2437E
:105D50001A00C2431B003F4030020343DF421C00D5
:105D600000001F533F903802F923D2431D003F40EB
:105D70000041D2521D001D001F533F900741F923DF
:105D8000D2431E003F400042D2521E001E001F534D
:105D90003F900742F923D2431F003F400043D252B5
:105DA0001F001F001F533F900743F923C2431D00EC
:105DB000C2431E00C2431F003F4040020343DF4274
:105DC000300000001F533F904802F923D2433100B6
:105DD0003F400051D252310031001F533F900751D4
:105DE000F923D24332003F400052D25232003200F7
:105DF0001F533F900752F923D24333003F400053D3
:105E0000D252330033001F533F900753F923C2434C
:105E10003100C2433200C24333003F4050020343CB
:105E2000DF42340000001F533F905802F923D24351
:105E300035003F400061D252350035001F533F907E
:105E40000761F923D24336003F400062D252360048
:105E500036001F533F900762F923D24337003F407B
:105E60000063D252370037001F533F900763F92376
:105E7000C2433500C2433600C243370031405202AC
:105E800005433F40001005433440E87AB240555581
:105E9000000384123F400020344012020543B24008
:105EA000EE7A1202B24055550003A4123F40003072
:105EB000344016020543B240F47A1602B2405555FA
:105EC0000003B4123F4000400543B2405555000363
:105ED000B012FA7A3F400050344000020543B2400D
:105EE000007B1A02B2405555000394121A003F403D
:105EF00000600543B240067B1E02B24055550003C8
:105F000090121CA33F4000700543B2400C7B20025E
:105F1000B24055550003921220023F4000800543D5
:105F2000034303433F400090314052023012E87A6D
:105F30003012EE7A3012F47A0D413012FA7A3012C1
:105F4000007B3012067B30120C7B0343014D05436E
:105F50000343A11203433F4000A0314052023012DC
:105F6000127B3012E87A3012EE7A3012F47A0D4158
:105F70003012FA7A3012007B3012067B30120C7B22
:105F80000343014D05430343B11203433F4000B0B7
:105F9000314052023012E87A3012EE7A3012F47A3E
:105FA0003012FA7A3012007B3012067B30120C7BF2
:105FB0000343054306430743911204000745054385
:105FC000911206000645054391120A0003433F4023
:105FD00000C00243344033333540888805E412431F
:105FE000344055553640999906E43F40001002432D
:105FF000344033333540888845E4124334405555A6
:106000003640999946E43F40002002433440AA0AB2
:106010003540660605E43F40003002433440440406
:106020003540440405E43F40013002433440AA8A2D
:106030003540660605E43F40023002433440AA8AF8
:106040003540668605E43F400330024334404484D3
:106050003540448405E43F400430024334400A663E
:10606000354006AA45E43F40004002433440046600
:10607000354004AA45E43F400140024334408A557C
:106080003540060045E43F400240024334408A5513
:106090003540865545E43F40034002433440846622
:1060A000354084AA45E43F40044022433440341242
:1060B0000F240443044304433640BC9A122404438F
:1060C000044304430543054305430643064306438F
:1060D00035407856F1270443044304430543054300
:1060E00005433F400010024334403412012404436E
:1060F0003F400020124334403412012404433F4007
:106100000120224334403412012404433F40022042
:106110003240030034403412012404433F40032042
:10612000224234403412012404433F4004203240D0
:10613000050034403412012404433F40052032401E
:10614000060034403412012404433F40062032400C
:10615000070034403412012404433F4007203240FA
:10616000000134403412012404433F4008203240EF
:10617000010134403412012404433F4009203240DD
:10618000020134403412012404433F400A203240CB
:10619000030134403412012404433F400B203240B9
:1061A000040134403412012404433F400C203240A7
:1061B000050134403412012404433F400D20324095
:1061C000060134403412012404433F400E20324083
:1061D000070134403412012404433F400F2002439E
:1061E000344059013540781005A412433440994990
:1061F0003640112106A43F400010024334405901AB
:106200003540781045A41243344049313640215678
:1062100046A43F400020024334409579254205A41E
:106220003F4000300243344095793540072005A4B3
:106230003F4001300243344095793540052005A4A4
:106240003F4002300243344095793540070005A4B1
:106250003F4003300243344075463540043145A485
:106260003F4000400243344075473540273045A445
:106270003F4001400243344075473540253145A435
:106280003F4002400243344075463540073245A442
:106290003F4003408243000282430202B240111198
:1062A0000402B24022220602B24033330802B24056
:1062B00044440A02B24055550C02B24066660E02D2
:1062C000B24077771002B24088881202B2409999A2
:1062D0001402B240AAAA1602B240BBBB1802B240D6
:1062E000CCCC1A02B240DDDD1C02B240EEEE1E0242
:1062F000B2432002B24022112202924300023140F6
:10630000040202430343044305430643074308438F
:1063100009430A430B430C430D430E430F43B24062
:1063200000100002B2410202B24001100002B2416C
:106330000202B240021000028243020201432242E2
:1063400003430443054306430743084309430A4301
:106350000B430C430D430E430F43B2400020000299
:10636000B2420202B24001200002B2420202B24036
:10637000022000028243020201430243334008022A
:106380000443054306430743084309430A430B43B9
:106390000C430D430E430F43B24000300002B243A2
:1063A0000202B24001300002B2430202B2400230A7
:1063B0000002B3108243020201430243034334400C
:1063C0000A02054306430743084309430A430B43B4
:1063D0000C430D430E430F43B24000400002B24451
:1063E0000202B24001400002B2440202B240024046
:1063F0000002824302020143024303430443354047
:106400000C0206430743084309430A430B430C436A
:106410000D430E430F43B24000500002B24502024A
:10642000B24001500002B2450202B24002500002E6
:1064300082430202014302430343044305433640BF
:106440000E020743084309430A430B430C430D4321
:106450000E430F43B24000600002B2460202B24057
:1064600001600002B2460202B240026000028243B2
:1064700002020143024303430443054306433740FA
:106480001002084309430A430B430C430D430E43D8
:106490000F43B24000700002B2470202B2400170E6
:1064A0000002B2470202B2400270000282430202BE
:1064B0000143024303430443054306430743384073
:1064C000120209430A430B430C430D430E430F438F
:1064D000B24000800002B2480202B24001800002D5
:1064E000B2480202B240028000028243020201432B
:1064F000024303430443054306430743084339402B
:1065000014020A430B430C430D430E430F43B240A6
:1065100000900002B2490202B24001900002B2496A
:106520000202B2400290000282430202014302438F
:1065300003430443054306430743084309433A40E2
:1065400016020B430C430D430E430F43B24000A011
:106550000002B24A0202B24001A00002B24A0202A4
:10656000B24002A0000282430202014302430343FD
:106570000443054306430743084309430A433B409A
:1065800018020C430D430E430F43B24000B000020B
:10659000B24B0202B24001B00002B24B0202B24062
:1065A00002B0000282430202014302430343044358
:1065B000054306430743084309430A430B433C4052
:1065C0001A020D430E430F43B24000C00002B24C0A
:1065D0000202B24001C00002B24C0202B24002C04C
:1065E0000002824302020143024303430443054382
:1065F00006430743084309430A430B430C433D400A
:106600001C020E430F43B24000D00002B24D020202
:10661000B24001D00002B24D0202B24002D00002EC
:1066200082430202014302430343044305430643FA
:106630000743084309430A430B430C430D433E40C1
:106640001E020F43B24000E00002B24E0202B2400E
:1066500001E00002B24E0202B24002E000028243B8
:106660000202014302430343044305430643074335
:10667000084309430A430B430C430D430E433F4079
:106680002002B24000F00002B24F0202B24001F01C
:106690000002B24F0202B24002F000028243020244
:1066A00031405002824300020F43C24357001F4350
:1066B0003E403001B0120040F240100057002F431E
:1066C0003E403001B0120040F240200057003F40F1
:1066D00003003E403001B0120040F240300057004D
:1066E0002F423E403001B01200403F400010F242C5
:1066F00058003F4001103E403001B0120040F240CF
:106700000A0058003F4002103E403001B0120040E5
:10671000F2400C0058003F4003103E403001B012E0
:106720000040F2400E0058003F4004103E4030014F
:10673000B01200403F400020C24358003F400120BB
:106740003E403001B0120040E24358003F4002207A
:106750003E403001B0120040E24258003F4003206A
:106760003E403001B0120040F240060058003F4069
:1067700004203E403001B01200403F4000303E4017
:106780000008B01200403F400040C2435700C243DF
:1067900058005442570055425800F240FF0057003D
:1067A0005642570057425800C243570058425700BC
:1067B00059425800F240FF0058005A4257005B42CD
:1067C0005800C24358005C4257005D4258003F40A9
:1067D00000503E401000B01200402242354064C9D3
:1067E00036406D6546553240030135407F64364082
:1067F000850B465512433540AEFA36405EB206551B
:106800003240040135402B2F3640C25946553240A4
:106810000201354001403640FEE746553240050052
:10682000354056133640D3144655324006000543D2
:106830003640FFBF46553240030135400102364025
:10684000E4FB465512433540003D364059DD0655C0
:1068500002433540400E36402CCB065532400001F5
:1068600035408106364016650655024335400274B0
:106870003640215B065532400401354011CC36408C
:106880003AC40655324006003540206636401D6247
:10689000065532400700354004C43640A45806551A
:1068A0003240030135400960364052AC0655124370
:1068B00035400046364083BF065522423540001021
:1068C00036406AB64655324002013540010836402E
:1068D000345B4655324005003540002036409A2D45
:1068E000465532400500354000803640668B46559F
:1068F00032400601354001043640182C46553240DE
:10690000030005433640A6FF46553240020135409C
:10691000198336403C4A06553240030035401A6D13
:106920003640C3054695324000013540275A36406F
:1069300028AC4695324005013540D3EA364057B27F
:10694000069532400401354069C436401E5A4695CA
:10695000324003013540EDF13640CDF346953240EB
:1069600005003540008036400080469532400600E4
:1069700035400040364000404695324002013540E7
:1069800011D7364068FE0695124305433640400055
:10699000469502433540925E36402C4B4695324038
:1069A00000013540510736401065469532400401DC
:1069B000354001CD364000C50695324006003540D1
:1069C000806636408162069532400700354002C439
:1069D0003640025806953240030135400102064315
:1069E0004695124335401046364001BA069522427C
:1069F000354020D0364021B2069532400201354064
:106A000005EA3640055A069532400500354008F43F
:106A10003640082C0695324002013540017A364056
:106A20000116069532400500354000103640001032
:106A3000469532400601354001083640000846952B
:106A40003240030035400020364000204695324059
:106A50000201154306434695324000011543364076
:106A600000044695324000011543064346952243F3
:106A700035408ADE3640A9A70695324001013540EF
:106A8000EBBA3640EB8B46A5324006003540126328
:106A9000364000B046A512433540FCEF3640FCFBC3
:106AA00006A532400401354023033640CB6546A598
:106AB00032400201354017FF364057FF46A53240AD
:106AC0000500354088AD3640A62E46A5324006006A
:106AD0003540EE8E3640798246A53240030135407E
:106AE0001B7236401B5246A512433540041D3640EA
:106AF000059406A502433540A6E53640A7ED46A518
:106B0000324000013540490E3640166C46A502431E
:106B100035400A7536400B5B06A53240040135400E
:106B2000AD523640AD5046A5324006003540C2C792
:106B3000364042C746A5324007003540B8C436400B
:106B4000BA5806A5324003013540ED943640FD9415
:106B500046A51243354096463640B7BE06A52242AA
:106B6000354020D7364024D746A532400201354073
:106B700069EB3640615B06A53240050035408486EE
:106B80003640859646A5324005003540B05A36401D
:106B9000B01A46A53240060135408B9436408A949F
:106BA00046A532400300354034BB3640353B46A550
:106BB00032400500354096443640974046A5324065
:106BC0000201354055173640551746A5124335404A
:106BD0002E36364034CD06A53240000135406B9943
:106BE00036402EC64645324007003540C04B364041
:106BF0001F1D464512433540B2E63640EB7346450D
:106C000032400401354077003640D02006453240FE
:106C100003013540FD7736408D780645324005004A
:106C20003540FEFF3640C61B464532400700354022
:106C3000FEF73640BB274645324003013540BFD5FD
:106C40003640E4FF064512433540FE1C3640589559
:106C50000645024335407E0F36402CCA0645324079
:106C600000013540EF0736401665064502433540C2
:106C7000DE753640215B0645324004013540FBCFCE
:106C800036403BC40645324006003540F667364084
:106C90001D620645324007003540FEC53640A45807
:106CA0000645324003013540FFEF364053AC4645C0
:106CB00012433540FEDF364083BF46452242354011
:106CC000FEBF36406BB64645324002013540FFFDFF
:106CD0003640355B4645324005003540FE7F364044
:106CE0009B2D4645324002013540FFFB3640CD1614
:106CF0004645324005003540FEFF3640678B46452D
:106D0000324003003540CC913640D67C4685224245
:106D10003540B2073640EACB468532400001354067
:106D200049EA364005B30685324004013540277EE6
:106D30003640096446853240020135400130364014
:106D400024034685324005003540D0A836400690E1
:106D5000468532400600354018A1364081424685BE
:106D60003240030135401DDD3640FDBB46851243F0
:106D70003540401D364048DC068502433540920FC1
:106D8000364000CB0685324000013540C106364012
:106D9000966406850243354002703640235B0685C3
:106DA00032400401354091CC36403AC40685324029
:106DB00006003540F0203640296206853240070043
:106DC00035404CC43640A458068532400301354056
:106DD0006D62364018AC068512433540801436404B
:106DE000011A468522423540C25C364028884685D5
:106DF00032400201354001E03640353A46853240A6
:106E00000500354012E03640084D4685324002010B
:106E10003540157A3640C902468532400500354076
:106E20000E3C3640408546853240030035404E07D3
:106E30003640C86C067522423540B20E36403BCF14
:106E400046753240050135400140064346753240E3
:106E5000000135401B0336402623067532400201EF
:106E6000354001A03640006046753240050035408F
:106E700000F836400108467532400600354084CEA1
:106E80003640C71B467532400301354011FC364081
:106E900011FA067512433540A01C3640E095067580
:106EA00002433540800F364080CB067532400001EA
:106EB0003540CB0636405604467532400401354015
:106EC000036C36400094467532400600354000673A
:106ED000364001630675324007003540085436409D
:106EE00008AC46753240030135400362364002ACBF
:106EF0000675124335400446364005BE06752242EB
:106F0000354000D8364001384675324002013540E0
:106F100001EC3640011C467532400500354000E664
:106F20003640013A46753240020135400103364091
:106F300000FF467532400500354000C0364001C0B4
:106F4000467532400601354081DC36408127467562
:106F500032400300354020E33640A6FE067532403D
:106F600005003540320636407997067532400201F9
:106F7000354039823640FC4A0675124335402EB6FC
:106F8000364035CC4675324003003540703B3640C4
:106F90001EE346E5324000013540AF3336408931CB
:106FA00046E532400501354093DE364077B206E5CE
:106FB00032400401354003003640FEEF46E53240E2
:106FC00002013540E3CC3640E63546E53240050067
:106FD000354002043640BF1C46E5324006003540CD
:106FE00002203640FED746E532400301354003F427
:106FF0003640D0FF06E512433540245536407CD15B
:1070000046E5024335404A8D364064CA46E5324083
:107010000001354055573640022546E502433540CC
:1070200000753640215B06E53240040135408100A1
:1070300036403AC406E5324006003540000236408C
:107040001C6246E532400700354002013640A45834
:1070500046E53240030135400500364052AC06E5B6
:10706000124335402000364082BF06E522423540BB
:1070700042D436406AB606E5324002013540090284
:107080003640345B06E5324005003540120036409C
:107090009A2D06E532400500354002103640668BD9
:1070A00046E532400601354001403640182C46E5A1
:1070B00032400300354000803640A6FF46E53240AE
:1070C0000500354002043640789646E5324002011C
:1070D0003540010836403C4B46E53240050136401C
:1070E0005692461122433640235406113240030182
:1070F000364058B9061132400001364085644611C9
:107100003240050036402AF3461132400201364033
:10711000D278461132400401364093FF06113240C6
:1071200006003640C8F7461122433640B0284611C3
:107130001243364058940611024336402CCA0611B9
:107140001243364042B6061132400101364075887E
:1071500006113240040136403AC40611324007019C
:10716000364049B10611324007003640A458061196
:1071700022433640067F4611324000013640D66C2D
:107180004611224236406AB646113240020136406C
:10719000355B46113240050036409A2D461132408B
:1071A00002013640CC1646113240070036404DFEF3
:1071B00006113240050136405692461022433640B1
:1071C000E16C0610324003013640A327061032401E
:1071D000000136408CDC4610224236400BF346104C
:1071E0003240020136408AF34610324004013640F4
:1071F00092EF4610324006003640C9FF0610124397
:10720000364058940610024336402CCA06101243EA
:10721000364042B6061032400101364075880610ED
:107220003240040136403AC446103240070136402D
:1072300049B10610324007003640A45806102243D8
:107240003640067F0610324000013640D76C0610EB
:10725000224236406AB646103240050036409A2D2A
:107260004610324002013640CD164610324004012D
:107270003640325846103240070036404CFF461028
:1072800032400500364078964610324005003640C0
:107290005E8BC61022433640C56486103240020120
:1072A0003640D02786103240000136408724C61071
:1072B00032400500364037FFC610324006013640E6
:1072C0008ED9C610324004013640B2EFC6103240AB
:1072D00006003640ED77C61022433640B1F98610DD
:1072E0001243364018958610024336402CC8C6100B
:1072F0001243364042B6861032400101364075884E
:1073000086103240040136403AC4861032400701EC
:10731000364048B18610324007003640A4588610E7
:1073200022433640067FC610324000013640D66CFC
:10733000C610224236406AB6C610324002013640BC
:10734000345BC6103240050036409A2DC6103240DC
:1073500002013640CC16C610324004013640325885
:10736000C6103240070036404CFFC61032400201C2
:107370003640F22CC6103240050036407896C610D2
:107380003240030036406998C6101243364035CD6E
:10739000861032400300364092E6861132400001EA
:1073A000364065D4C611324003003640182D861190
:1073B00022423640454AC61132400500364013F796
:1073C0008611324007013640FEF5C61132400401F5
:1073D00036408BEF8611324006003640C8FFC6119A
:1073E00022433640B028C611124336405994C61184
:1073F000024336402CCA86111243364042B68611EB
:107400003240010136407588C611324004013640D1
:107410003AC4861132400701364049B186113240E4
:1074200007003640A458C61122433640077FC611D4
:10743000324000013640D66CC6113240050035405E
:1074400064C93640E5A446653240020135403B3F01
:10745000364050FA4665124335409AEA3640BBB290
:10746000066532400401354057A036404B2A466538
:10747000324002013540E1743640F1494665324000
:107480000500354000BF3640C77D06653240070025
:1074900035400080364076AF4665324003013540C6
:1074A00001403640E4FB466512433540401C3640FF
:1074B0005895066502433540800A36402CCA066559
:1074C000324000013540030636401665066502432A
:1074D000354010743640215B06653240040135406A
:1074E00021CC36403AC40665324006003540046679
:1074F00036401D62066532400700354008C43640FC
:10750000A45806653240030135400162364052AC52
:107510000665124335400010364082BF4665224260
:107520003540000836406AB64665324002013540B3
:1075300001203640345B4665324005000543364045
:107540009B2D466532400201354001023640CC1683
:10755000466532400500354000043640668B46657E
:107560003240060115433640182C4665324005006E
:107570003540320736407996066532400001354085
:107580005D8636406B2646F5324007003540EA6896
:107590003640007046F51243354074EB3640A57214
:1075A00006F5324004013540A3F436403E1046F55E
:1075B000324002013540FF5236409ECD46F5224210
:1075C0003540E8BE3640CBBC06F5324006003540BB
:1075D00000043640E4ED46F5324003013540012019
:1075E0003640E4FF46F512433540401C364058957E
:1075F00006F502433540000F36402CCB06F53240ED
:107600000001354081023640166506F502433540DB
:1076100002743640215B06F53240040135401148C2
:1076200036403AC406F53240060035402066364002
:107630001D6206F532400700354004C43640A458A8
:1076400006F53240030135400962364052AC06F57A
:10765000124335400046364083BF06F5224235408E
:10766000001036406AB646F5324002013540010846
:107670003640345B46F53240050035400040364028
:107680009A2D46F53240020115433640CD1646F597
:1076900032400500354000023640668B46F53240E8
:1076A0000601354001803640182C46F53240030073
:1076B00005433640A6FF46F53240020135401983A6
:1076C00036403C4B46F53240030135405D8636403E
:1076D0006B2646C5024335409659364088D846C584
:1076E0001243354070FF3640C9D906C53240050007
:1076F000354040223640FE2306C532400201354067
:10770000873E3640C37D46C5324005013540C9D865
:107710003640087F46C53240070005433640FFEF3C
:1077200046C532400301354001403640E4FB46C5C2
:1077300012433540001D3640589406C5024335407B
:10774000800836402CCA06C5324000013540030689
:107750003640166506C50243354010743640215B3D
:1077600006C532400401354021C836403AC406C53A
:10777000324006003540046636401D6206C5324080
:107780000700354008C43640A45806C532400301FE
:1077900035400162364052AC06C5124335400010F8
:1077A000364082BF46C522423540000836406AB6A0
:1077B00046C532400201354001203640345B46C5A3
:1077C000324005003540000236409A2D46C5324011
:1077D0000201354001803640CC1646C532400500D6
:1077E000354000043640668B46C5324006011543DD
:1077F0003640182C46C53240000135405D86364083
:107800006B2646D532400700354082F7364045406A
:1078100046D5124335407EEF36409EB306D5324002
:1078200004013540CB88364098BE46D5324002012F
:107830003540018036408EF946D53240050035404E
:10784000000836400EBD46D532400600354080BAAD
:107850003640D9FF06D532400301354041D036408D
:10786000E4FA06D512433540001D3640589406D53B
:1078700002433540020E36402CCA06D53240000184
:10788000354011023640166506D502433540207456
:107890003640215B06D532400401354005CC3640E8
:1078A0003AC406D5324006003540086636401D62AF
:1078B00006D532400700354000C43640A45806D5EE
:1078C0003240030135400110364052AC46D51243D8
:1078D00035400020364082BF46D522423540004028
:1078E00036406AB646D53240020115433640355B14
:1078F00046D5324005003540000236409A2D46D527
:1079000032400201354001043640CC1646D53240A3
:10791000050005433640668B46D5324003003540AE
:1079200020E33640A6FF46D512433540BC303640F2
:107930008B5146B53240060035408ECF364034C6B6
:1079400046B532400101354023BB3640025706B5EB
:10795000324004013540F7EB36407F4B46B53240AC
:10796000030135409D203640972046B53240050042
:107970003540569F364042BE46B53240070035403E
:10798000720F3640630A46B53240030135409F28E6
:1079900036405EA846B512433540705D364041BD65
:1079A00006B50243354000DC364001D046B53240D2
:1079B0000001354081813640C08146B502433540E3
:1079C000B6F83640BEFA46B5324004013540230DC4
:1079D0003640360446B5324006003540906B36409E
:1079E0001C6346B53240060035408085364000AE07
:1079F00046B5324002013540418E364040A646B57C
:107A0000124335400046364001BE06B5224235409D
:107A1000C0D4364081B606B532400201354009EA8D
:107A20003640095A06B5224235400AF436400A2C3F
:107A300006B5324003013540017A3640071606B5D7
:107A4000224235400092364000B246B5324007012E
:107A50003540C9AF36406A8F46B522433540CAA586
:107A600036406AB146B5324005003540CA4136401D
:107A7000694146B5324002013540818E3640C0A68C
:107A800046B50243354000343640010446B5324025
:107A900000013540571B36405AE606B5324000011A
:107AA0003540297A3640279B06B52242354014BD21
:107AB0003640134C06B5224335400ADE364009A74E
:107AC00006B532400101354085EE364094D206B508
:107AD000324000013540B71D3640035F46B53F4098
:107AE000CCFA03433040FFFF35403412304135407B
:107AF000785630413540BC9A30413540CDAB3041AD
:107B0000354001EF304135404523304135408967EC
:107B1000304135409A1531800A0030413412785690
:107B2000BC9AF0DE00000000000000000000000031
:107B30000000000000000000000000000000ED0F49
:0A7B4000A9CB658721432E1F4C3DA1
:10FFE000E27AE27AE27AE27AE27AE27AE27AE27A31
:10FFF000E27AE27AE27AE27AE27AE27AE27A064037
:0400000300004000B9
:00000001FF
